:100000000C9445010C9476010C9476010C947601C5
:100010000C9476010C9476010C9476010C94760184
:100020000C9476010C9476010C9476010C94760174
:100030000C9476010C9476010C9476010C94760164
:100040000C9476010C9476010C9476010C94760154
:100050000C9476010C9476010C9476010C9455075F
:100060000C9476010C9422070C944A060C947601A9
:100070000C9476010C9476010C9476010C94760124
:100080000C9476010C9476010C9476010C94760114
:100090000C94EF060C940B060C9476010C947601EC
:1000A0000C9476010C9476010C9476010C947601F4
:1000B0000C9476010C9476010C9476010C947601E4
:1000C0000C9476010C9476010C9476010C94BC0689
:1000D0000C94CC050C9476010C9489060C948D0537
:1000E0000C9476018F02920285028902C90296025F
:1000F0009A02A002A402A802AE02B202B602C9028B
:10010000BC02C002C4020C94BC020C94A8020C9461
:10011000E5010C949F070C94C9020C9485020C9481
:10012000C5010C94000A0C94AE020C9496020C9437
:10013000B6020C94B2020C943C020C948F020C9404
:10014000BA010C9492020C949A020C94A0020C94A2
:10015000C0020C9489020C94C4020C9478010C9493
:10016000A4020C94010200002100240027002A00B0
:100170002D003000330001010000040107010A01D5
:10018000000020002300260029002C002F00320050
:100190000001000003010601090100002200250002
:1001A00028002B002E003100340002010000050160
:1001B00008010B01050505050705080808080202E6
:1001C00002020A0A080804040404010101010101F1
:1001D00001010303030303030303040707070C0CD4
:1001E0000C0C0C0C0C0C020202020606060606069B
:1001F00006060B0B0B0B0B0B0B0B01021020200840
:100200000810204010204080020102010804020171
:1002100001020408102040808040201008040201E0
:100220008004020180402010080402010804020139
:1002300001020408102040800102040810204080C0
:100240000000090A02080B0C0D0706030401000058
:10025000000000000000000000000000000000009E
:1002600000000000000000000000000011100F005E
:10027000000000000000000000000000000000007E
:100280000000000000009F07000A11241FBECFEFEE
:10029000D1E2DEBFCDBF00E00CBF12E0A0E0B2E0D3
:1002A000E8E8FBE100E00BBF02C007900D92AA3125
:1002B000B107D9F724E0AAE1B2E001C01D92A43E43
:1002C000B207E1F711E0C4E4D1E000E006C02197F5
:1002D0000109802FFE010E94900DC334D10780E0F8
:1002E0000807A9F70E9482080C940C0A0C940000DD
:1002F0000F931F93CF93DF93FC01A685B7858D01E4
:10030000005C1F4FE8018881998101968F739927BE
:10031000AD014E5B5F4FEA0128813981281739070B
:10032000D1F3E80128813981A20FB31F6C93A68510
:10033000B785A05CBF4F11969C938E93A689B78911
:100340002C9181E090E0078C02C0880F991F0A94DD
:10035000E2F7822B8C9381E081A30488F589E02D5C
:1003600080818064808381E090E0DF91CF911F9154
:100370000F910895FC0181A1882329F0A489B589F2
:100380008C9186FFFBCF11A20895FC01A485B58551
:10039000FD01E05CFF4F20813181329680819181A7
:1003A0002817390779F080819181A80FB91F8C91A6
:1003B000208131812F5F3F4F2F733327318320837B
:1003C00090E008958FEF9FEF0895DC011C96ED916A
:1003D000FC911D97DF01A05CBF4F2D913C911197BF
:1003E00012968D919C9111972817390739F08D91AC
:1003F0009C91E80FF91F808190E008958FEF9FEFA7
:100400000895FC0124853585F901E05CFF4F80816A
:100410009181329620813181821B930B8F739927B2
:10042000089589EA94E00E9401028FEF93E00E9410
:10043000010285E593E00E9401028BEA92E00C94B0
:100440000102FB01E05CFF4F20813181DB01AE5BEB
:10045000BF4F4D915C912F5F3F4F2F733327421752
:10046000530741F040815181DB01A40FB51F8C93EC
:100470003183208308950895CF92DF92EF92FF9207
:100480000F931F93CF93DF936C01EB017B01E40E7D
:10049000F51E00E010E0CE15DF0561F06991D60190
:1004A000ED91FC910190F081E02DC6011995080FA6
:1004B000191FF1CFC801DF91CF911F910F91FF90CC
:1004C000EF90DF90CF900895362F90E0FC01E05C34
:1004D000FD4F4491FC01E650FE4F2491FC01EC5489
:1004E000FE4F9491992309F468C0442309F451C044
:1004F00050E0FA013197E131F10508F04AC0882750
:10050000EE58FF4F8F4F0C94900D809180008F77A5
:1005100003C0809180008F7D809380003AC084B5B5
:100520008F7702C084B58F7D84BD33C08091B000C9
:100530008F7703C08091B0008F7D8093B00029C079
:10054000809190008F7707C0809190008F7D03C0CD
:1005500080919000877F809390001BC08091A000C5
:100560008F7707C08091A0008F7D03C08091A0008D
:10057000877F8093A0000DC0809120018F7707C0F6
:10058000809120018F7D03C080912001877F80931F
:100590002001E92FF0E0EE0FFF1FE656FE4FA59178
:1005A000B4919FB7F894311104C08C912095282301
:1005B00002C0EC912E2B2C939FBF08953FB7F89467
:1005C00080911F0290912002A0912102B0912202FD
:1005D00026B5A89B05C02F3F19F00196A11DB11D9E
:1005E0003FBFBA2FA92F982F8827820F911DA11DD9
:1005F000B11DBC01CD0142E0660F771F881F991F16
:100600004A95D1F708950F931F93CF93DF938C01F1
:10061000EB01FC0180819181009799F04281538127
:100620002C813D814217530750F0688179810E94E7
:10063000530C8C819D81F8019583848313C00E94A3
:10064000DC0A88819981F801918380838A819B816A
:10065000938382838C819D81958384831982188200
:100660001B821A821D821C82DF91CF911F910F91F4
:100670000895CF93DF93EC0188819981009711F061
:100680000E94DC0A198218821D821C821B821A8237
:10069000DF91CF910895FC01808191810C94DC0A57
:1006A0000F931F93CF93DF93EC018881998100977B
:1006B00029F02A813B812617370788F48B016F5F69
:1006C0007F4F0E94650B009761F0998388831B839D
:1006D0000A832C813D81232B11F4FC01108281E0DF
:1006E00001C080E0DF91CF911F910F9108950F938A
:1006F0001F93CF93DF93EC010C811D810F5F1F4F80
:10070000B8010E945003882369F0288139818C81C7
:100710009D8166E172E0820F931F0E94530C1D833E
:100720000C8303C0CE010E943903CE01DF91CF912B
:100730001F910F910895EF92FF920F931F93CF9304
:10074000DF93EC01FB0104811581E080F180E1146D
:10075000F104C9F001151105C9F08C819D81080FC4
:10076000191FB801CE010E945003882361F028812F
:1007700039818C819D81B701820F931F0E94530C98
:100780001D830C8303C0CE010E943903CE01DF918B
:10079000CF911F910F91FF90EF900895EF92FF92EC
:1007A0000F931F93CF93DF93EC017B018A01BA0172
:1007B0000E945003811104C0CE010E94390307C07A
:1007C0001D830C83B701888199810E94530CCE014F
:1007D000DF91CF911F910F91FF90EF900895EF92CD
:1007E000FF920F931F93CF93DF93CDB7DEB762973E
:1007F0000FB6F894DEBF0FBECDBF8C01CB01F80160
:1008000011821082138212821582148216824AE0AB
:100810009E012F5F3F4F7901B9010E940F0AF70136
:1008200001900020E9F73197AF014E195F09B70138
:10083000C8010E94CE0362960FB6F894DEBF0FBEC9
:10084000CDBFDF91CF911F910F91FF90EF90089551
:10085000CF93DF93EC01FB018617970761F060816E
:1008600071816115710529F0448155810E94CE0383
:1008700002C00E943903CE01DF91CF910895FC019F
:1008800011821082138212821582148216826115DF
:10089000710551F0FB0101900020E9F73197AF019C
:1008A000461B570B0C94CE0308958F929F92AF92E4
:1008B000BF92CF92DF92EF92FF920F931F93CF934D
:1008C000DF93CDB7DEB72E970FB6F894DEBF0FBE1D
:1008D000CDBF8C017B016A01CB019927FC01E65059
:1008E000FE4F2491FC01EC54FE4F8491882399F033
:1008F00090E0880F991FFC01EA59FE4FA591B49131
:10090000FC01E656FE4F859194918FB7F894EC91D7
:10091000E22BEC938FBFC60199279C0126503E4FD6
:100920004901F90144919C012C543E4F5901F901B0
:1009300084918823C9F090E0880F991FFC01EA593F
:10094000FE4FA591B491FC01E656FE4F25913491DE
:100950005FB7F8949C91842F809598239C93F9011C
:100960009081892380835FBF67E172E0C8010E94A4
:100970003F0460E08E2D0E94640282E090E00197C7
:10098000F1F761E08E2D0E94640282E290E001970F
:10099000F1F760E08C2D0E946402F4018490F5016F
:1009A000849190E0880F991F80589E4F40E050E05E
:1009B000BA01FC01A591B4912C912821821218C092
:1009C0004F5F5F4F6F4F7F4F4134F2E45F07FFE0AF
:1009D0006F07710571F743C04F5F5F4F6F4F7F4FD8
:1009E000413422E452072FE06207710509F437C051
:1009F000FC01A591B4912C9128218212EDCF30E415
:100A0000C32E32E4D32E3FE0E32EF12CC41AD50AD4
:100A1000E60AF70A20E030E0A901FC01A591B491B3
:100A20006C91682186120AC02C153D054E055F05A4
:100A3000B1F02F5F3F4F4F4F5F4FEFCFA5E1B0E0D9
:100A40000E94980DDC01CB014096A11DB11D24E050
:100A5000B695A795979587952A95D1F703C080E01D
:100A600090E0DC01BC0197FF02C06F5F7F4F75957E
:100A70006795072E000C880B990B0E94040D20E04F
:100A800030E044EE51E40E945A0C2CE53FE842E28B
:100A900050E40E945A0C0E94CC0CFE0131967F015A
:100AA0006A307105CCF4CE0108960E94EF0368E12C
:100AB00072E0C7010E943F04BE01685F7F4FC7011B
:100AC0000E949B03BC01C8010E942804C7010E9428
:100AD0004B03CE0108960BC0CF010E94EF03E01636
:100AE000F10621F0B701C8010E940303C7010E946B
:100AF0004B03C8012E960FB6F894DEBF0FBECDBFD4
:100B0000DF91CF911F910F91FF90EF90DF90CF90E9
:100B1000BF90AF909F908F9008951F920F920FB645
:100B20000F9211240BB60F922F933F938F939F93A5
:100B3000EF93FF93209163023091640280916502EC
:100B4000909166022817390731F4809131018F7D29
:100B50008093310114C0E0916502F0916602ED5D71
:100B6000FD4F2081809165029091660201968F73FE
:100B70009927909366028093650220933601FF9136
:100B8000EF919F918F913F912F910F900BBE0F90FE
:100B90000FBE0F901F9018951F920F920FB60F92D5
:100BA00011240BB60F922F933F938F939F93EF9344
:100BB000FF9320910D0330910E0380910F039091CC
:100BC00010032817390731F48091D1008F7D80936D
:100BD000D10014C0E0910F03F0911003E353FD4FD7
:100BE000208180910F039091100301968F739927B4
:100BF0009093100380930F032093D600FF91EF9101
:100C00009F918F913F912F910F900BBE0F900FBE30
:100C10000F901F9018951F920F920FB60F921124EC
:100C20000BB60F922F933F938F939F93EF93FF9366
:100C30002091B7033091B8038091B9039091BA0322
:100C40002817390731F48091C9008F7D8093C9003E
:100C500014C0E091B903F091BA03E958FC4F208128
:100C60008091B9039091BA0301968F73992790935D
:100C7000BA038093B9032093CE00FF91EF919F9127
:100C80008F913F912F910F900BBE0F900FBE0F9041
:100C90001F9018951F920F920FB60F9211240BB64A
:100CA0000F922F933F938F939F93EF93FF932091F6
:100CB0006104309162048091630490916404281768
:100CC000390731F48091C1008F7D8093C10014C039
:100CD000E0916304F0916404EF5DFB4F208180910B
:100CE00063049091640401968F7399279093640430
:100CF000809363042093C600FF91EF919F918F91A1
:100D00003F912F910F900BBE0F900FBE0F901F9031
:100D100018951F920F920FB60F9211240BB60F92D7
:100D20002F933F934F935F936F937F938F939F93F3
:100D3000AF93BF93EF93FF938091300182FD07C083
:100D40008091360167E672E00E94210202C0809124
:100D50003601FF91EF91BF91AF919F918F917F915C
:100D60006F915F914F913F912F910F900BBE0F901C
:100D70000FBE0F901F9018951F920F920FB60F92F3
:100D800011240BB60F922F933F934F935F936F9362
:100D90007F938F939F93AF93BF93EF93FF93809134
:100DA000D00082FD07C08091D60061E173E00E940F
:100DB000210202C08091D600FF91EF91BF91AF91C7
:100DC0009F918F917F916F915F914F913F912F9163
:100DD0000F900BBE0F900FBE0F901F9018951F9293
:100DE0000F920FB60F9211240BB60F922F933F93D1
:100DF0004F935F936F937F938F939F93AF93BF9323
:100E0000EF93FF938091C80082FD07C08091CE00D0
:100E10006BEB73E00E94210202C08091CE00FF9133
:100E2000EF91BF91AF919F918F917F916F915F9162
:100E30004F913F912F910F900BBE0F900FBE0F90CF
:100E40001F9018951F920F920FB60F9211240BB698
:100E50000F922F933F934F935F936F937F938F9353
:100E60009F93AF93BF93EF93FF938091C00082FD58
:100E700007C08091C60065E674E00E94210202C0AE
:100E80008091C600FF91EF91BF91AF919F918F919B
:100E90007F916F915F914F913F912F910F900BBE7A
:100EA0000F900FBE0F901F9018951F920F920FB6C4
:100EB0000F9211242F933F938F939F93AF93BF93E0
:100EC00080911B0290911C02A0911D02B0911E0204
:100ED00030911A0223E0230F2D3720F40196A11D33
:100EE000B11D05C026E8230F0296A11DB11D209358
:100EF0001A0280931B0290931C02A0931D02B093D0
:100F00001E0280911F0290912002A0912102B091B7
:100F100022020196A11DB11D80931F029093200211
:100F2000A0932102B0932202BF91AF919F918F9124
:100F30003F912F910F900FBE0F901F901895CF9259
:100F4000DF92EF92FF92E9EAF4E01382128288EED8
:100F5000C82E83E0D82EE12CF12CC482D582E68203
:100F6000F7826AE072E07183608385E694E095879A
:100F7000848781E294E09787868785EC90E0918B67
:100F8000808B84EC90E0938B828B80EC90E0958B4F
:100F9000848B81EC90E0978B868B82EC90E0918F34
:100FA000808F86EC90E0938F828F44E0448F33E013
:100FB000358F27E0268F95E0978F81E080A3EFEFB4
:100FC000F3E013821282C482D582E682F7827183B3
:100FD0006083ABEBB3E0B587A487A7E7B3E0B7873F
:100FE000A687ADECB0E0B18BA08BACECB0E0B38BDE
:100FF000A28BA8ECB0E0B58BA48BA9ECB0E0B78BCA
:10100000A68BAAECB0E0B18FA08FAEECB0E0B38FAE
:10101000A28F448F358F268F978F80A3E5E5F3E06D
:1010200013821282C482D582E682F7827183608342
:10103000A1E1B3E0B587A487ADECB2E0B787A6879E
:10104000A5EDB0E0B18BA08BA4EDB0E0B38BA28B8B
:10105000A0EDB0E0B58BA48BA1EDB0E0B78BA68B73
:10106000A2EDB0E0B18FA08FA6EDB0E0B38FA28F5C
:10107000448F358F268F978F80A3EBEAF2E013829F
:101080001282C482D582E682F7827183608367E62A
:1010900072E07587648763E272E07787668765E34D
:1010A00071E0718B608B64E371E0738B628B60E342
:1010B00071E0758B648B61E371E0778B668B62E323
:1010C00071E0718F608F66E371E0738F628F448F80
:1010D000358F268F978F80A367E172E089ED94E0CA
:1010E0000E943F0467E172E082ED94E00E943F04B9
:1010F00067E172E08BEC94E0FF90EF90DF90CF908F
:101100000C943F04CF93DF93CDB7DEB72E970FB685
:10111000F894DEBF0FBECDBF789484B5826084BDE5
:1011200084B5816084BD85B5826085BD85B58160EB
:1011300085BD80916E00816080936E001092810069
:101140008091810082608093810080918100816024
:1011500080938100809180008160809380008091E5
:10116000B10084608093B1008091B0008160809371
:10117000B0008091910082608093910080919100F5
:1011800081608093910080919000816080939000B5
:101190008091A10082608093A1008091A100816074
:1011A0008093A1008091A00081608093A000809135
:1011B00021018260809321018091210181608093CF
:1011C00021018091200181608093200180917A002B
:1011D000846080937A0080917A00826080937A00A4
:1011E00080917A00816080937A0080917A00806893
:1011F00080937A001092C100E091BD04F091BE048A
:1012000081E090E09C010090C90402C0220F331FCE
:101210000A94E2F72083E091B904F091BA041082B5
:10122000E091BB04F091BC042FEC20831092CA041F
:10123000E091BF04F091C00440819C010090C5047E
:1012400002C0220F331F0A94E2F7242B2083E0917F
:10125000BF04F091C00440819C010090C60402C00C
:10126000220F331F0A94E2F7242B2083E091BF045E
:10127000F091C00440819C010090C70402C0220F7D
:10128000331F0A94E2F7242B2083E091BF04F091EE
:10129000C00420810090C80402C0880F991F0A94DE
:1012A000E2F780958223808341E350E060E370E0C1
:1012B000CE0101960E945504BE016F5F7F4F89EDFC
:1012C00094E00E940303CE0101960E944B0343E386
:1012D00050E062E370E0CE0101960E945504BE0129
:1012E0006F5F7F4F82ED94E00E940303CE01019671
:1012F0000E944B0345E350E064E370E0CE010196A9
:101300000E945504BE016F5F7F4F8BEC94E00E94FA
:101310000303CE0101960E944B03198618861B8693
:101320001A861D861C861E8669ED74E0CE0108961D
:101330000E9428041A8219821C821B821E821D822E
:101340001F82BE01685F7F4FCE0101960E94280474
:10135000CE0101960E94770362ED74E00E949B0328
:101360000E9477036BEC74E00E949B037C0100E019
:1013700010E0F701848195810817190788F48081AE
:101380009181009729F0FC01E00FF11F608101C0FD
:1013900060E089EA94E00E9478010F5F1F4FE9CF77
:1013A0006DE089EA94E00E9478016AE089EA94E0BD
:1013B0000E947801CE0101960E944B03CE0108964F
:1013C0000E944B030E94DE028B018AEFC82ED12CB3
:1013D000E12CF12C0E94DE02601B710B683E734011
:1013E000C8F381E0C81AD108E108F10808511C4F80
:1013F000C114D104E104F10469F70E94110254CF31
:101400008BEC94E00E944B0382ED94E00E944B032E
:1014100089ED94E00C944B03F8940C94B20DBB2727
:101420004A3031F4992322F4BDE2909581959F4F83
:101430000C941B0ABB27FB015527AA27880F991F6D
:10144000AA1FA41710F0A41B83955051B9F7A05DF3
:10145000AA3308F0A95DA193009779F7B111B19370
:101460001192CB010C94340ADC01FC01672F7191BD
:101470007723E1F7329704C07C916D93708362917A
:10148000AE17BF07C8F308950F931F93CF93DF9351
:101490008230910510F482E090E0E091E204F09156
:1014A000E30420E030E0A0E0B0E0309719F14081A3
:1014B00051810281138148175907C8F08417950795
:1014C00069F4109731F012960C93129713961C93AF
:1014D00027C00093E2041093E30422C021153105D4
:1014E00019F04217530718F49A01BD01EF01DF010B
:1014F000F801DBCF21153105F9F0281B390B243019
:10150000310580F48A819B816115710521F0FB0111
:101510009383828304C09093E3048093E204FE01EA
:10152000329644C0FE01E20FF31F81939193225043
:101530003109398328833AC02091E0043091E104D5
:10154000232B41F420910202309103023093E104F5
:101550002093E00420910002309101022115310511
:1015600041F42DB73EB74091040250910502241B6F
:10157000350BE091E004F091E104E217F307A0F4E9
:101580002E1B3F0B2817390778F0AC014E5F5F4FD9
:101590002417350748F04E0F5F1F5093E104409326
:1015A000E0048193919302C0E0E0F0E0CF01DF918D
:1015B000CF911F910F910895CF93DF93009709F476
:1015C00081C0FC01329713821282A091E204B09193
:1015D000E304109781F420813181820F931F2091C1
:1015E000E0043091E1042817390751F5F093E10444
:1015F000E093E00467C0ED0120E030E0CE17DF07A4
:1016000040F44A815B819E0141155105F1F0EA01E8
:10161000F5CFD383C28340815181840F951FC817B2
:10162000D90759F488819981840F951F0296918377
:1016300080838A819B81938382832115310529F4DC
:10164000F093E304E093E2043DC0E901FB83EA8305
:1016500049915991C40FD51FEC17FD0761F48081A2
:101660009181840F951F0296E90199838883828175
:1016700093819B838A83E0E0F0E012968D919C91A8
:101680001397009719F0FD01DC01F7CF8D919C9124
:1016900011979D012E5F3F4F820F931F2091E00411
:1016A0003091E1042817390769F4309729F4109232
:1016B000E3041092E20402C013821282B093E104A8
:1016C000A093E004DF91CF9108956F927F928F9263
:1016D0009F92AF92BF92CF92DF92EF92FF920F93C1
:1016E0001F93CF93DF93009789F4CB01DF91CF91C4
:1016F0001F910F91FF90EF90DF90CF90BF90AF9030
:101700009F908F907F906F900C94440AFC01E60F9D
:10171000F71F9C0122503109E217F30708F4A9C012
:10172000EC01D9010D911C91119706171707B0F024
:101730000530110508F49BC0C80104978617970768
:1017400008F495C002501109061B170B0193119361
:101750006D937C93CF010E94DC0A89C05B01A01AC3
:10176000B10A4C01800E911EA091E204B091E304F5
:10177000612C712CE12CF12C109709F446C08D914D
:101780009C911197A815B905B1F56C0142E0C40E02
:10179000D11CCA14DB0478F14C018A189B0864013F
:1017A00042E0C40ED11C1296BC9012971396AC91D5
:1017B000B5E0CB16D10440F0B282A383918280823F
:1017C000D9016D937C9309C00E5F1F4F800F911F4D
:1017D000F90191838083EB2DFA2FE114F10431F0AC
:1017E000D7011396FC93EE93129741C0F093E30454
:1017F000E093E2043CC06816790608F43C017D01E0
:1018000012960D90BC91A02DB7CF8091E0049091DD
:10181000E10488169906E1F466167706C8F480910B
:10182000000290910102009741F48DB79EB740915C
:10183000040250910502841B950BE817F907C8F4C0
:10184000F093E104E093E004F901718360830FC039
:10185000CB010E94440A7C01009759F0A801BE0107
:101860000E944A0CCE010E94DC0AC70104C0CE01CE
:1018700002C080E090E0DF91CF911F910F91FF9027
:10188000EF90DF90CF90BF90AF909F908F907F9020
:101890006F900895FB01DC0102C001900D92415050
:1018A0005040D8F70895FB01DC0101900D92002013
:1018B000E1F708950E946E0C0C94560D0E944F0D96
:1018C00058F00E94480D40F029F45F3F29F00C9435
:1018D0003F0D51110C948A0D0C94450D0E94670D1B
:1018E00068F39923B1F3552391F3951B550BBB274F
:1018F000AA2762177307840738F09F5F5F4F220F94
:10190000331F441FAA1FA9F335D00E2E3AF0E0E88A
:1019100032D091505040E695001CCAF72BD0FE2FD4
:1019200029D0660F771F881FBB1F26173707480768
:10193000AB07B0E809F0BB0B802DBF01FF27935820
:101940005F4F3AF09E3F510578F00C943F0D0C9498
:101950008A0D5F3FE4F3983ED4F3869577956795BB
:10196000B795F7959F5FC9F7880F911D9695879555
:1019700097F90895E1E0660F771F881FBB1F621774
:1019800073078407BA0720F0621B730B840BBA0B32
:10199000EE1F88F7E09508950E94D30C6894B1116A
:1019A0000C948A0D08950E946F0D88F09F5798F04F
:1019B000B92F9927B751B0F0E1F0660F771F881F54
:1019C000991F1AF0BA95C9F714C0B13091F00E946E
:1019D000890DB1E008950C94890D672F782F882721
:1019E000B85F39F0B93FCCF3869577956795B39595
:1019F000D9F73EF490958095709561957F4F8F4F04
:101A00009F4F0895E89409C097FB3EF49095809508
:101A1000709561957F4F8F4F9F4F9923A9F0F92FB4
:101A200096E9BB279395F695879577956795B79532
:101A3000F111F8CFFAF4BB0F11F460FF1BC06F5F18
:101A40007F4F8F4F9F4F16C0882311F096E911C02A
:101A5000772321F09EE8872F762F05C0662371F04B
:101A600096E8862F70E060E02AF09A95660F771F5F
:101A7000881FDAF7880F9695879597F9089597F953
:101A80009F6780E870E060E008959FEF80EC089524
:101A900000240A941616170618060906089500244D
:101AA0000A9412161306140605060895092E0394C7
:101AB000000C11F4882352F0BB0F40F4BF2B11F43B
:101AC00060FF04C06F5F7F4F8F4F9F4F089557FD9A
:101AD0009058440F551F59F05F3F71F04795880F9C
:101AE00097FB991F61F09F3F79F087950895121633
:101AF00013061406551FF2CF4695F1DF08C01616DF
:101B000017061806991FF1CF86957105610508948F
:101B10000895E894BB2766277727CB0197F90895A6
:101B2000EE0FFF1F881F8BBF0790F691E02D1994D1
:101B30000E94A30DA59F900DB49F900DA49F800DB2
:101B4000911D11240895A29FB001B39FC001A39FCE
:101B5000700D811D1124911DB29F700D811D1124E6
:101B6000911D089511E0C4E4D1E000E006C0802F8B
:101B7000FE010E94900D2196011DC534D10780E021
:081B80000807A9F7F894FFCF54
:101B88000000E40420000000000078013C0201028B
:0A1B9800C501E501BA012C00300080
:00000001FF
